:100000000C9434000C9446000C9446000C9446006A
:100010000C9446000C9446000C9446000C94460048
:100020000C9446000C94F0000C9446000C9446008E
:100030000C9446000C9446000C9446000C94460028
:100040000C9446000C9446000C9446000C94460018
:100050000C9446000C9485010C9446000C944600C8
:100060000C9446000C94460011241FBECFEFD8E03C
:10007000DEBFCDBF21E0A0E0B1E001C01D92A630FF
:10008000B207E1F70E9443010C946A030C9400004C
:100090009AB190649AB9411107C094B59F7394BD09
:1000A00094B5906C94BD06C094B59F7394BD94B5FF
:1000B000906894BD811107C084B58C7F84BD84B5E0
:1000C000816084BD06C084B58C7F84BD84B58360A7
:1000D00084BD60347105A1F024F46830710549F0E5
:1000E00024C0611581E0780791F061157440B1F08A
:1000F0001CC085B5887F85BD85B5826085BD0895A6
:1001000085B5887F85BD85B5836085BD089585B536
:10011000887F85BD85B5846085BD089585B5887F58
:1001200085BD85B5856085BD089585B5887F85BD0C
:1001300085B5816085BD08959AB190629AB94111E3
:1001400007C094B59F7E94BD94B5906394BD06C0DE
:1001500094B59F7C94BD94B5906294BD811107C005
:1001600084B58C7F84BD84B5816084BD06C084B5B0
:100170008C7F84BD84B5836084BD60347105A1F03B
:1001800024F46830710549F024C0611581E07807D6
:1001900091F061157440B1F01CC085B5887F85BDB4
:1001A00085B5826085BD089585B5887F85BD85B597
:1001B000836085BD089585B5887F85BD85B58460DC
:1001C00085BD089585B5887F85BD85B5856085BD6C
:1001D000089585B5887F85BD85B5816085BD089505
:1001E0001F920F920FB60F9211248F939F938091BD
:1001F00001018F5F8093010180910101803410F033
:10020000109201019091010180910001981720F452
:100210008BB180688BB903C08BB18F778BB99F91FD
:100220008F910F900FBE0F901F901895E1E6F0E0B0
:1002300080E8808384E0808341E060E470E081E0D6
:100240000E94480041E060E470E081E00E949C0070
:1002500017B88AB180688AB90895ECE7F0E0108297
:1002600080818666808384E880937A000895109266
:10027000B000E1EBF0E0108280818160808381E05A
:10028000809370000895F8940E9416010E942D0139
:100290000E943701EAE7F0E0808188648083109251
:1002A000020178946091030170E080E090E00E9488
:1002B000710228EF3AEF4AE75DE30E94FD022EEF5C
:1002C0003FEF49E651E40E94D4010E94400267BD1D
:1002D0006091040170E080E090E00E94710228EFDC
:1002E0003AEF4AE75DE30E94FD022EEF3FEF49E659
:1002F00051E40E94D4010E94400268BD8091050132
:100300008695869580930001CDCF1F920F920FB6F0
:100310000F9211248F93EF93FF938091020181300C
:1003200089F018F08230D9F026C0ECE7F0E0808147
:10033000887F80838081876080838091790080932B
:10034000050119C0ECE7F0E08081887F808380811F
:100350008660808380917900809304010CC0ECE773
:10036000F0E08081887F80838081856080838091B8
:10037000790080930301EAE7F0E080818064808364
:10038000809102018F5F809302018091020183308E
:1003900011F410920201FF91EF918F910F900FBE17
:1003A0000F901F9018955058BB27AA270E94EB0169
:1003B0000C94C3020E94B50238F00E94BC0220F0E7
:1003C00039F49F3F19F426F40C94B2020EF4E09530
:1003D000E7FB0C94AC02E92F0E94D40258F3BA1741
:1003E000620773078407950720F079F4A6F50C944B
:1003F000F6020EF4E0950B2EBA2FA02D0B01B901D9
:1004000090010C01CA01A0011124FF27591B99F08A
:10041000593F50F4503E68F11A16F040A22F232F96
:10042000342F4427585FF3CF469537952795A795E6
:10043000F0405395C9F77EF41F16BA0B620B730B8D
:10044000840BBAF09150A1F0FF0FBB1F661F771FFE
:10045000881FC2F70EC0BA0F621F731F841F48F4B3
:10046000879577956795B795F7959E3F08F0B0CF3C
:100470009395880F08F09927EE0F97958795089523
:100480000E94DC0288F09F5798F0B92F9927B75146
:10049000B0F0E1F0660F771F881F991F1AF0BA9528
:1004A000C9F714C0B13091F00E94F602B1E008958E
:1004B0000C94F602672F782F8827B85F39F0B93F80
:1004C000CCF3869577956795B395D9F73EF49095DB
:1004D0008095709561957F4F8F4F9F4F0895E89459
:1004E00009C097FB3EF490958095709561957F4F7C
:1004F0008F4F9F4F9923A9F0F92F96E9BB2793952A
:10050000F695879577956795B795F111F8CFFAF439
:10051000BB0F11F460FF1BC06F5F7F4F8F4F9F4F6A
:1005200016C0882311F096E911C0772321F09EE8C8
:10053000872F762F05C0662371F096E8862F70E02E
:1005400060E02AF09A95660F771F881FDAF7880F08
:100550009695879597F9089597F99F6780E870E0D9
:1005600060E008959FEF80EC089500240A94161629
:10057000170618060906089500240A941216130691
:10058000140605060895092E0394000C11F488231F
:1005900052F0BB0F40F4BF2B11F460FF04C06F5F3B
:1005A0007F4F8F4F9F4F089557FD9058440F551F11
:1005B00059F05F3F71F04795880F97FB991F61F0E5
:1005C0009F3F79F087950895121613061406551F5C
:1005D000F2CF4695F1DF08C0161617061806991FC8
:1005E000F1CF86957105610508940895E894BB27BD
:1005F00066277727CB0197F908950E9410030C9482
:10060000C3020E94B50238F00E94BC0220F095237C
:1006100011F00C94AC020C94B20211240C94F70269
:100620000E94D40270F3959FC1F3950F50E0551FBF
:10063000629FF001729FBB27F00DB11D639FAA2737
:10064000F00DB11DAA1F649F6627B00DA11D661F86
:10065000829F2227B00DA11D621F739FB00DA11DA7
:10066000621F839FA00D611D221F749F3327A00D61
:10067000611D231F849F600D211D822F762F6A2FFD
:1006800011249F5750409AF0F1F088234AF0EE0F62
:10069000FF1FBB1F661F771F881F91505040A9F78F
:1006A0009E3F510580F00C94AC020C94F7025F3F22
:1006B000E4F3983ED4F3869577956795B795F795CB
:1006C000E7959F5FC1F7FE2B880F911D9695879543
:0806D00097F90895F894FFCF9B
:00000001FF
